:020000040800F2
:10000000284E002045010008851D00082513000822
:10001000811D0008C90E00085138000800000000CA
:10002000000000000000000000000000F52C0008A7
:10003000E110000800000000592B0008092E0008FC
:100040005F0100085F0100085F0100085F01000810
:100050005F0100085F0100085F0100085F01000800
:100060005F0100085F0100085F0100085F010008F0
:100070005F0100085F0100085F0100085F010008E0
:100080005F0100085F0100085F0100085F010008D0
:100090005F0100085F0100085F0100085F010008C0
:1000A0005F0100085F0100085F0100085F010008B0
:1000B0005F0100085D2F0008C92F00085F010008DC
:1000C0005F0100085F0100085F0100085F01000890
:1000D0005F01000829340008A9340008253500080C
:1000E0005F0100085F0100085F0100085F01000870
:1000F0005F0100085F0100085F0100085F01000860
:100100005F0100085F0100085F0100085F0100084F
:100110005F0100085F0100085F0100085F0100083F
:100120005F0100085F0100085F0100085F0100082F
:10013000DFF80CD000F0F0FB00480047334800081F
:10014000284E00200648804706480047FEE7FEE7A5
:10015000FEE7FEE7FEE7FEE7FEE7FEE7FEE7FEE777
:100160000D2E00083101000840EA01039B0703D06F
:1001700009E008C9121F08C0042AFAD203E011F8E6
:10018000013B00F8013B521EF9D27047D2B201E0A8
:1001900000F8012B491EFBD270470022F6E710B58C
:1001A00013460A4604461946FFF7F0FF204610BDE5
:1001B00030B505462A460B4612F8010B13F8014BE1
:1001C00008B1A042F8D01CB1002802D06D1CF1E7A4
:1001D000284630BD421C10F8011B0029FBD1801AB3
:1001E0007047F0B480EA0102D40F4200B2EB410F35
:1001F00002D20246084611464A0042D0C30DDDB283
:10020000C1F3C752AD1A202D35DAC1F3160141F4FE
:10021000000204B15242C5F1200602FA06F12A4159
:100220001044B3EBD05F23D0C4B1012DA0EBC35079
:1002300009DCF0BC4FF0004202EAC352DBB200F529
:10024000000000F0ADBA400000F1807000EBC35038
:10025000A0F1807040EAD170490009E0490841EA04
:10026000C071A0EBC35000F50000400800EBC35084
:10027000F0BC00F08CBA6142012202EB4101001B8C
:10028000F6E7F0BC704781F00041AAE780F000403B
:10029000A7E780EA010210B502F00043400022D037
:1002A0004A001FD0010E01EB1261C0F35600C2F3E9
:1002B000560240F4000042F40002A0FB02200004B9
:1002C0007F39140400D0401C50EA124001D4400091
:1002D000491EC2B20C0604EBD010401C4008802A14
:1002E00002D003E0002010BD20F00100002900DA58
:1002F0000020184310BD30B480EA010202F000452E
:1003000030F0004221F0004013D090B1C30DD40D65
:10031000C2F31601C0F31600E41A41F4000140F4E0
:1003200000027D34914201D3641C00E04900002C9E
:1003300002DA30BC002070474FF4000000239142E5
:1003400001D3891A034340084FEA4101F7D151B163
:10035000914202D14FF0004105E002D24FF001017D
:1003600001E06FF0010103EBC450284430BC00F001
:100370000EBA2DE9FE4F804681EA0300C00F0C46FD
:10038000009021F0004123F00045B8EB0200A941A4
:1003900005D24046214690461C460B46024623F0B5
:1003A0000040104347D0270DC7F30A00C3F30A519A
:1003B0000290401A019040286BDAC3F3130040F416
:1003C000801B0098924620B10023D2EB030A63EB16
:1003D0000B0B01985946C0F14002504600F0B6F9A7
:1003E00006460D4650465946019A00F0BEF910EBFC
:1003F00008006141002487EA115284EAE7731A4336
:1004000040D0009A62B3019A012A4FEA075215DCE4
:10041000001B61EB02014FF0004202EA0752CDE9F6
:100420000042001C41F5801132462B4600F0F5F9E0
:1004300003B0BDE8F08F40462146F9E7001B61EBB1
:100440000201001C41F5801300185B412018A2F541
:10045000001747EB030140EAD570B6196D4111E072
:100460006D084FEA360645EAC0754FEA0752001B91
:1004700061EB0201001C41F5801149084FEA300090
:100480000019514132462B4603B0BDE8F04F00F051
:10049000B5B90098012240000023D0EB020263EBC3
:1004A000E073009821464FEAE074B8EB000061EB7E
:1004B0000401E9E783F000435BE781F0004158E77E
:1004C0002DE9FE4F81EA030404F0004421F00041CD
:1004D00000944FF0000B23F0004350EA01045ED07B
:1004E00052EA03045BD0C3F30A54C1F30A552C4407
:1004F000A4F2F3340194A0FB0254C1F3130141F4BC
:100500008011C3F3130343F4801301FB024400FB87
:10051000034E840A970A44EA815447EA8357A4FBAE
:10052000076802958D0A05FB07854FEA932C04FBAB
:100530000C542705029D4FEA065847EA1637B5EBDB
:1005400008056EEB070C870E920E47EA811742EA08
:100550008312A7FB0201B6EB0B0164EB00042B0D29
:1005600043EA0C335E1844EB1C50DA465146E7FB75
:100570000201C5F313044FEA0B3343EA14534FEA65
:100580000432019C43EA0603A4F10C040294009C8B
:10059000CDE900B400F041F903B0BDE8F08F0020D0
:1005A0000146F9E72DE9F04D81EA030404F0004B20
:1005B00021F0004514464FF0000A23F0004150EAB4
:1005C000050220D054EA01021DD0C5F30A570246A5
:1005D000C5F31303C1F31300C1F30A5640F48015A9
:1005E00043F48013A7EB0608101BD64608F2FD382B
:1005F00073EB050002D308F1010801E092185B419A
:10060000B8F1000F03DA00200146BDE8F08D0020AC
:100610004FF48011064684460EE0171B73EB050766
:1006200005D3121B63EB050306434CEA010C490892
:100630004FEA300092185B4150EA0107EDD152EACF
:10064000030012D082EA040083EA0501084305D0C2
:10065000101BAB4106D20122002306E000224FF01E
:10066000004302E06FF0010253101AEB06004CEB5E
:10067000085110EB0A0041EB0B01BDE8F04D00F012
:10068000BDB896230022114600F08AB800F000425F
:1006900020F00040C10DC0F3160040F400007F2997
:1006A00001DA00207047962903DCC1F19601C840A9
:1006B00001E096398840002AF4D04042704730B5B6
:1006C0000B46014600202022012409E021FA02F510
:1006D0009D4205D303FA02F5491B04FA02F52844AA
:1006E000151EA2F10102F1DC30BD2DE9F05F0546D7
:1006F000002092469B4688460646814640241BE0E1
:10070000284641464746224600F018F953465A46C5
:10071000C01A914110D311461846224600F016F82F
:100720002D1A67EB01084F4622460120002100F0F8
:100730000DF817EB00094E41201EA4F10104DFDC87
:10074000484631462A464346BDE8F09F202A04DB4E
:10075000203A00FA02F1002070479140C2F12003D4
:1007600020FA03F3194390407047202A06DBCB1789
:10077000203A41FA02F043EAE07306E041FA02F35C
:10078000D040C2F120029140084319467047002929
:10079000A8BF7047401C490008BF20F00100704707
:1007A00010B4B0FA80FC00FA0CF050EA010404BF67
:1007B00010BC704749B1CCF1200421FA04F411FABD
:1007C0000CF118BF012121430843A3EB0C01CB1D01
:1007D0004FEA00614FEA102042BF002010BC704772
:1007E00000EBC35010440029A4BF10BC7047401C4C
:1007F000490008BF20F0010010BC704710B5141E5E
:1008000073F1000408DA401C41F1000192185B41C9
:100810001A4301D120F0010010BD2DE9F04D9246A0
:100820009B4611B1B1FA81F202E0B0FA80F22032B7
:100830009046FFF78BFF04460F4640EA0A0041EA64
:100840000B0153465A46084313D0114653EA0100A0
:1008500019D0C8F14002504600F070F805460E4627
:10086000504659464246FFF771FF084305D0012024
:1008700004E020463946BDE8F08D0020054346EAF5
:10088000E0762C4337430A986305E40AA0EB08009E
:100890000022FD0A44EA47540A3002D500200146EE
:1008A000E9E7010510196941DDE9084500196941C9
:1008B000BDE8F04DA2E7C1F30A52C1F3130140F2C3
:1008C000FF3341F480119A4202DA0020014670475A
:1008D00040F233439A42A2F2334202DC524200F029
:1008E0002DB8FFF733BF000030B5041E71F10004CE
:1008F00004DB4FF00044404264EB0101141E73F12D
:10090000000405DB1C464FF00043524263EB040336
:10091000994208BF904230BD064C074D06E0E068A2
:1009200040F0010394E8070098471034AC42F6D336
:10093000FFF702FCAC6E0008CC6E0008202A04DB36
:10094000203A21FA02F00021704721FA02F3D04048
:10095000C2F12002914008431946704770B58C18C7
:1009600010F8015B15F0070301D110F8013B2A11C3
:1009700006D110F8012B03E010F8016B01F8016BB0
:100980005B1EF9D12B0705D40023521E0DD401F8AC
:10099000013BFAE710F8013BCB1A921C03E013F875
:1009A000015B01F8015B521EF9D5A142D8D30020AA
:1009B00070BD21B1826842F00102826003E082686A
:1009C00022F001028260704710B50446124884424A
:1009D00008D10121401502F0FDF80021601502F058
:1009E000F9F817E00D48844208D10121001502F002
:1009F000F1F80021201502F0EDF80BE008488442E0
:100A000008D10121C80302F0E5F800214FF40040AD
:100A100002F0E0F810BD0000002401400028014071
:100A2000003C0140014600208A6802F004020AB13D
:100A3000012000E0002070470146C86C80B270477A
:100A40000246002013680B400BB1012000E000209B
:100A50007047014600208A6802F008020AB10120AE
:100A600000E000207047000030B50246002000235F
:100A700050680F4C20400D790C6844EA052420434F
:100A8000506090680B4C2040D1E902542C434D79C2
:100A900044EA450420439060D06A20F470000C7C46
:100AA000641EE4B2234340EA0350D06230BD00002C
:100AB000FFFEF0FFFDF7F1FFF0B504460D46002004
:100AC0000021092D11DDE068A5F10A0606EB4607B5
:100AD000072606FA07F18843A5F10A0606EB460643
:100AE00003FA06F10843E0600CE0206905EB4507D6
:100AF000072606FA07F1884305EB450603FA06F1D7
:100B000008432061072A0FDA606B561E06EB860742
:100B10001F2606FA07F18843561E06EB860605FADD
:100B200006F10843606322E00D2A0FDA206BD61F1E
:100B300006EB86071F2606FA07F18843D61F06EB49
:100B4000860605FA06F10843206310E0E06AA2F188
:100B50000D0606EB86071F2606FA07F18843A2F169
:100B60000D0606EB860605FA06F10843E062F0BDC5
:100B7000816841F008018160704721B1826842F4C8
:100B8000A002826003E0826822F4A00282607047C3
:100B9000816841F004018160704710B54FF4E13085
:100BA00002F058FE02F0E4FF10BD000000B587B06F
:100BB00001214FF4017001F0FDFF4FF4004001F0FE
:100BC000CDFF0220ADF8040000208DF8070001A938
:100BD000174800F086FA1748FFF7F6FE002002904B
:100BE0008DF80C008DF80D004FF46020049000206B
:100BF000059001208DF8180002A90E48FFF734FF78
:100C000001210C48FFF7D5FE0A48FFF7B1FF00BFEE
:100C10000848FFF71EFF0028FAD10648FFF7B8FF83
:100C200000BF0448FFF7FEFE0028FAD107B000BD60
:100C3000000801400024014000B587B001214FF4B5
:100C4000027001F0B7FF4FF4004001F087FF012070
:100C5000ADF8040000208DF8070001A9174800F046
:100C600040FA1748FFF7B0FE002002908DF80C0004
:100C70008DF80D004FF460200490002005900120B5
:100C80008DF8180002A90E48FFF7EEFE01210C486E
:100C9000FFF78FFE0A48FFF76BFF00BF0848FFF71A
:100CA000D8FE0028FAD10648FFF772FF00BF0448BB
:100CB000FFF7B8FE0028FAD107B000BD000C0140D4
:100CC0000024014000B587B001214FF4027001F00B
:100CD00071FF4FF4004001F041FF0220ADF8040025
:100CE00000208DF8070001A9174800F0FAF917480D
:100CF000FFF76AFE002002908DF80C008DF80D00C1
:100D00004FF4602004900020059001208DF8180019
:100D100002A90E48FFF7A8FE01210C48FFF749FE83
:100D20000A48FFF725FF00BF0848FFF792FE00289A
:100D3000FAD10648FFF72CFF00BF0448FFF772FE08
:100D40000028FAD107B000BD000C0140002401408A
:100D500010B5A2B080212648FFF71FFA25A228A1CE
:100D6000234802F05DFF2248FFF734FA2E4908605D
:100D700080212E48FFF711FA2DA31EA22FA12B4888
:100D800002F04EFF2948FFF725FA2E49086080211E
:100D90002D48FFF702FA802102A8FFF7FEF924A0F0
:100DA00014A314A229A1009002A802F039FF02A8FE
:100DB000FFF710FA044620202DA3234A2146009075
:100DC00002A803F019FE2048FFF704FA3149086031
:100DD00080213148FFF7E1F915A230A12E4802F039
:100DE0001FFF40F25B703749086022B010BD000061
:100DF000284600206465766963652D767A000000D8
:100E000025737C7365637572656D6F64653D332C06
:100E10007369676E6D6574686F643D686D61637357
:100E20006861317C0000000048080020A8460020CE
:100E30006B3071646C4A59506F797A00257326259E
:100E4000730000004C08002028470020636C69658F
:100E50006E74496425736465766963654E616D657A
:100E6000257370726F647563744B65792573000028
:100E70003739343837623330376233373937633292
:100E8000356662373665323433366630343036385C
:100E90000000000050080020A847002025732E699C
:100EA0006F742D61732D6D7174742E636E2D736864
:100EB000616E676861692E616C6979756E63732E06
:100EC000636F6D005408002000BFFEE770B5054653
:100ED0000C462246294615480068801CFFF744F955
:100EE0002046E11704EB1161090A104A12681170DB
:100EF000E11704EB11610912A4EB01210B4A1268FE
:100F00005170002109480268A01C1154074800686C
:100F100000F5007005490860084600680449096842
:100F2000884202D103480149086070BD3C08002096
:100F3000440800202836002010B5002415484068D9
:100F400020F07040134948600846406840F0004077
:100F5000486004E0601CC4B2012003F01FFC0E488E
:100F6000006808B1642CF5DB642C01DB012010BDA6
:100F7000002404E0601CC4B2012003F00FFC06480A
:100F8000006808B9642CF5DB642C01DB0120EEE776
:100F90000020ECE7001001403C01224208B501218D
:100FA000102001F007FE4FF40040ADF800001020C3
:100FB0008DF8030003208DF802006946064800F012
:100FC00090F84FF40041044800F01FF900F068F871
:100FD000FFF7B2FF08BD00000010014010B500246B
:100FE00004E0601CC4B2012003F0D8FB0D48006887
:100FF00008B1642CF5DB002404E0601CC4B20120BD
:1010000003F0CCFB0748006808B9642CF5DB282006
:1010100003F0C4FB0348006808B1012010BD0020A4
:10102000FCE700003C01224270B50024002506E0E8
:101030006006040EFFF7D2FF0443681CC5B2082DFA
:10104000F6DB204670BD7CB505460E4600F028F85C
:10105000FFF772FFF8B9002405E0FFF7E5FF0DF890
:101060000400601CC4B2052CF7DB9DF800009DF85D
:10107000011008449DF8021008449DF8031008442C
:101080009DF80410884208D19DF8000030709DF84A
:101090000200287001E001207CBD0020FCE7000078
:1010A00010B50C48406820F070400A494860084676
:1010B000406840F040504860002007490860142014
:1010C00003F046FB01200549C1F8BC011E2003F0D6
:1010D00065FB10BD00100140BC012242000022420D
:1010E00070472DE9F041024600250026002000232C
:1010F0000024002791F803C00CF00F0591F803C0FD
:101100000CF0100CBCF1000F03D091F802C04CEAB7
:10111000050591F800C0BCF1000F31D01468002023
:101120002BE04FF0010C0CFA00F3B1F800C00CEA10
:1011300003069E4220D183004FF00F0C0CFA03F7F8
:10114000BC4305FA03FC4CEA040491F803C0BCF16B
:10115000280F06D14FF0010C0CFA00FCC2F814C0A5
:101160000AE091F803C0BCF1480F05D14FF0010C23
:101170000CFA00FCC2F810C0401C0828D1D314603F
:10118000B1F800C0BCF1FF0F34DD546800202EE040
:1011900000F1080C4FF0010808FA0CF3B1F800C098
:1011A0000CEA03069E4221D183004FF00F0C0CFA8B
:1011B00003F7BC4305FA03FC4CEA040491F803C0AE
:1011C000BCF1280F05D100F1080C08FA0CF8C2F8A0
:1011D000148091F803C0BCF1480F07D100F1080C4E
:1011E0004FF0010808FA0CF8C2F81080401C0828DB
:1011F000CED35460BDE8F0810246002093680B40D6
:101200000BB1012000E000207047016170470AB176
:10121000016100E04161704710B5044607230122D7
:1012200021460948FFF748FC01210748FFF7A5FCC4
:1012300000BF02210448FFF703FC0028F9D0024850
:10124000FFF7FAFB10BD0000002401402DE9F0413A
:1012500007460C460025002608E03846FFF7DCFF6D
:101260000544052003F074FA701CC6B2A642F4DBF4
:10127000B5FBF4F080B2BDE8F08100002DE9F0414B
:10128000044601210846FFF7E1FF06463046FFF716
:10129000F8F907464FF08B41FFF72DF80546034953
:1012A000FEF7F7FF2060BDE8F08100000000C842B3
:1012B0002DE9F047044601210820FFF7C7FF8046CB
:1012C0004046FFF7DEF981464FF08B41FFF713F8F8
:1012D00007460649FEF7DDFF06460449FEF7D6FF3E
:1012E0000546FFF7D3F92060BDE8F0870000C8424B
:1012F0002DE9F041044601210920FFF7A7FF06462A
:101300003046FFF7BEF907464FF08B41FEF7F3FF7B
:1013100005460349FEF7BDFF2060BDE8F0810000EF
:101320000000C84200BFFEE770B502460024002559
:1013300000230020958A138B1B0445EA030626F040
:101340007F4404EA01068E4201D1012000E0002022
:1013500070BD21B1028842F00102028004E00288DF
:101360004FF6FE731A4002807047000000B585B04A
:101370000121480501F0FEFB0121082001F01AFCC3
:10138000C020ADF8000003208DF802001C208DF86D
:10139000030069461148FFF7A4FE114800F024F845
:1013A0000020ADF808004BF6FF70ADF80A003020C1
:1013B000ADF80C004FF48060ADF80E000001ADF800
:1013C00010000848019001210548FFF7C2FF01A95C
:1013D000034800F05BF805B000BD0000000C0140C0
:1013E00000540040801A060010B504460B488442A1
:1013F00009D10121480501F0CDFB00214FF4001077
:1014000001F0C8FB08E00121880501F0C3FB0021C1
:101410004FF4800001F0BEFB10BD000000540040FE
:1014200021B1028842F48072028004E002884FF603
:10143000FF631A400280704721B1028842F40072B3
:10144000028004E002884FF6FF531A400280704782
:101450000CB50246002000230193009300920B0F6D
:10146000019321F07F41019B1BB1009B143300933A
:1014700003E0090C009B18330093009B1B680B4092
:101480000BB1012000E000200CBD00002DE9F0436D
:1014900085B004460D460026B1460427DFF8CC800F
:1014A000A6884FF6C0700640684601F0A3FBDDF841
:1014B00008802F48B8FBF0F01FFA80F946EA0906C9
:1014C000A68020884FF6FE7108402080002629491A
:1014D000286888420CD828684000B8FBF0F087B232
:1014E000042F00DA04273E4309F10100208427E09D
:1014F000E8884BF6FF71884206D1286800EB40006F
:10150000B8FBF0F087B209E0286800EBC00101EBFE
:101510000010B8FBF0F087B247F48047C7F30B0028
:1015200008B947F0010747F4004006434FF49670AE
:1015300009FB00F04FF47A7190FBF1F0401C20841D
:10154000A683208840F00100208026884FF6F530E1
:101550000640A8886989084306432680A889298906
:101560000843208105B0BDE8F083000000127A0036
:1015700040420F00A086010012B141F0010102E0DB
:101580004FF6FE73194001827047018270470000D8
:1015900070B504460D4600BF4FF400311B48FFF7FD
:1015A00057FF0028F8D101211848FFF739FF00BF85
:1015B00017491648FFF7B8FE0028F9D00022782115
:1015C0001248FFF7D9FF00BF12491048FFF7ACFEE1
:1015D0000028F9D029460D48FFF7D7FF00BF0D4975
:1015E0000A48FFF7A1FE0028F9D000BF0949891E6B
:1015F0000648FFF799FE0028F8D021460348FFF778
:10160000C4FF01210148FFF717FF70BD00540040DF
:10161000010003008400070008B50121082001F043
:10162000C9FA4FF47040ADF8000048208DF803006F
:1016300069460248FFF755FD08BD0000000C014057
:1016400010B5044614B10120304908702F480078C5
:1016500000283DD04FF480512D48FFF7CDFD88B1D3
:101660004FF400512A48FFF7C7FD58B14FF48041AD
:101670002748FFF7C1FD28B14FF400412448FFF788
:10168000BBFD28BB0A2003F063F800201F49087047
:101690004FF480511E48FFF7AFFD08B9012010BD7F
:1016A0004FF400511A48FFF7A7FD08B90220F6E7EA
:1016B0004FF480411648FFF79FFD08B90320EEE77D
:1016C0004FF400411248FFF797FDE0B90420E6E728
:1016D0004FF480510E48FFF78FFD012813D14103CD
:1016E0000B48FFF789FD01280DD181030848FFF75A
:1016F00083FD012807D1C1030548FFF77DFD0128BF
:1017000001D1024908700020C9E70000180000203C
:10171000000C014008B50121042001F04BFA032020
:101720008DF8020010208DF80300C001ADF8000014
:1017300069460248FFF7D5FC08BD000000080140DB
:1017400013481449086008460068134908601348A4
:101750001349086013481449086008460068134993
:101760000860134813490860134814490860084684
:1017700000681349086013481349086000201349A2
:1017800008701349087013490870134908707047AE
:1017900028160020240800202808002028240020E3
:1017A0002C080020282600203008002034080020C3
:1017B0002834002038080020283600203C0800206B
:1017C000400800202844002044080020650800202C
:1017D00067080020660800206408002010B52A4829
:1017E00000682A490968884240D02848006826498C
:1017F0000860084600682649884204D101F5006067
:101800002149086023E0204801682248814204D130
:1018100000F500601C49086019E01B4801681E487B
:10182000814204D100F50060174908600FE01648B6
:101830000068A0F500701449086008460068A0F52B
:101840000070086008460068A0F5007008600F4846
:1018500004680D4800680D49086000F041F8002157
:101860000EA000F041FA0948046005E000F038F8E5
:1018700000210AA000F038FA002016490870164925
:1018800008701649087010BD340800203008002088
:101890002826002028280020282A00202F7379736A
:1018A0002F6B3071646C4A59506F797A2F6465766A
:1018B0006963652D767A2F7468696E672F73657218
:1018C000766963652F70726F70657274792F7365B6
:1018D00074000000670800206608002064080020EB
:1018E00070B501207A4908600A207A4908607A4870
:1018F0000068001D794909680844801C7849096816
:101900000844784908607348006809684418102042
:101910007549087000BF2046E11704EB5161C911F9
:10192000A4EBC115E11704EB5161CC11002C01DDD2
:1019300045F080056C48664A126885546448006822
:10194000401C63490860002CE5DC0021664A6048C1
:101950000068115404215E480068401C11544D2158
:101960005B480068801C1154512159480068C01C14
:101970001154542156480068001D11545448006801
:10198000401D1154042152480068801D1154C22189
:101990004F480068C01D115400214D4800680830B0
:1019A000115464214A480068093011544A490868B2
:1019B000C11700EB1161C1F307224B4B4449096881
:1019C0000A315A5444490868C11700EB11610912E1
:1019D000A0EB0121CAB23E4909680B315A541A469C
:1019E0003B4909680C3150183B490A683F49FEF7EA
:1019F000BBFB3A490868C11700EB1161C1F307222C
:101A0000334909680C31344B1B681944364B5A541E
:101A100032490868C11700EB11610912A0EB0121DE
:101A2000CAB22B4909680D312B4B1B6819442E4B48
:101A30005A54274909680E31274A126811441A4638
:101A4000881826490A682A49FEF78EFB2449086847
:101A5000C11700EB1161C1F307221D4909680E315E
:101A60001D4B1B6819441D4B1B6819441E4B5A54CF
:101A70001B490868C11700EB11610912A0EB012195
:101A8000CAB2134909680F31134B1B681944134B31
:101A90001B681944144B5A540D49096810310E4AF9
:101AA000126811440D4A126811441A4688180C49EC
:101AB0000A681049FEF758FB05480068054A126895
:101AC0001044084A12688118074801F07BFC70BD79
:101AD000580800205C080020480800204C0800201E
:101AE00050080020600800202848002028460020D8
:101AF000A8460020284700202DE9F04FADF5057DD0
:101B0000804698F8011098F8000001EB00208490BE
:101B100008F102070020814605460646839001240D
:101B20004FF0010A00BF8398401C839000BF281922
:101B300017F8009009F07F0000FB0A664FEACA1A06
:101B4000641C09F080000028F1D1301905443119D6
:101B50008498401A84900124A24600268498002884
:101B6000E1D10546064600BF00BF80902FE000BFD0
:101B7000281917F8009009F07F0000FB0A664FEA69
:101B8000CA1A641C09F080000028F1D1601C2844A6
:101B9000395C6019385C01EB002000F1020BA6EB08
:101BA0000B00829028195844819081983918684612
:101BB000829AFEF7D9FA68468299FFF787F93019B9
:101BC00005440124A24600268098401C80908399F9
:101BD00080988842CBDB0DF5057DBDE8F08F0000D5
:101BE00010B5C02004490870002048700221024846
:101BF00001F0E8FB10BD0000284800202DE9F04767
:101C00000546884616460120334908602846FEF7F7
:101C1000E1FA801C314908603148066008460068D6
:101C20002F490968441830202E49087000BF20460B
:101C3000E11704EB5161C911A4EBC117E11704EBE3
:101C40005161CC11002C01DD47F080072548224A64
:101C50001268875420480068401C1F490860002C07
:101C6000E5DC2846FEF7B6FAC0F307211D4A1A48FC
:101C7000006811542846FEF7ADFAC1B2194A164859
:101C80000068401C11542846FEF7A4FA8146154A04
:101C900011490968891C50184A462946FEF764FA1A
:101CA0002846FEF797FA0C490968891C08440D4933
:101CB00000EB0109324641464846FEF755FA064810
:101CC0000068064A12681044054A126881180548DF
:101CD00001F078FBBDE8F087580800205C08002080
:101CE000600800202848002070B504460D460220F8
:101CF0001F4908601F4908602046FEF76BFAC01CA8
:101D00001D49086082201D4908701A4800781A4948
:101D10000978084419494870002088700120C8706B
:101D20002046FEF757FA000A144908712046FEF7CC
:101D300051FA124948712046FEF74CFA06463246DF
:101D400021460E48801DFEF70FFA2046FEF742FAA4
:101D5000801D0A490D5406480068064A126810445E
:101D6000054A12688118054801F02CFB70BD00007F
:101D7000580800205C080020600800202848002047
:101D800000BFFEE77047000070B5002100230F225E
:101D9000C47804B3154C246804F4E064C4F5E0642A
:101DA000210AC1F10403CA40447804FA03F184789B
:101DB0001440214309010E4C0678A155047804F023
:101DC0001F050124AC4005786D11AD0005F1E0253B
:101DD000C5F8004109E0047804F01F050124AC4077
:101DE000044D0678761145F8264070BD0CED00E0F4
:101DF00000E400E080E100E002490143024A116092
:101E0000704700000000FA050CED00E010B500205E
:101E100000F076FD10BD000010B5ADF5127D4FF459
:101E2000007112A8FEF7B9F9FEA000681190FEA09B
:101E300000681090FDA000680F90FDA000680E9053
:101E4000FCA000680D90FCA000680C90FBA000684E
:101E50000B90FBA000680A90FAA000680990FAA015
:101E600000680890F9A000680790F9A00068069043
:101E70000024F848007801287ED10020FFF7E0FB1D
:101E8000F549086008460068012806D1F348006853
:101E9000401CF2490860FFF7B9FFF04800680628C7
:101EA00002D10020ED490860EC48006800BB112217
:101EB0000221202000F0B0FD12220221302000F08B
:101EC000ABFD0F220221402000F0A6FD10220221CE
:101ED000502000F0A1FD4FF47A7002F039FC4FF46D
:101EE0007A7002F035FCFFF791FF0120DB490860B2
:101EF000DA48006801287CD100221146104600F023
:101F00008BFD02220021102000F086FDD449D54827
:101F1000FFF799F8D3480278D3A1D44801F080FEA6
:101F20000223D24A0021202000F0A0FD012200213E
:101F3000402000F071FD02220021502000F06CFDD5
:101F4000C7480278CAA1C94801F06AFE0223C74AFD
:101F50000021602000F08AFD03220221002000F011
:101F60005BFD04220221102000F056FD0122022117
:101F7000202000F051FD00E0ECE302221146302069
:101F800000F04AFDBC48FFF793F9BB48BBA10268CB
:101F9000B64801F045FE0223B44A1946402000F03D
:101FA00065FD05220421002000F036FD06220421F3
:101FB000102000F031FD07220421202000F02CFD2C
:101FC00008220421302000F027FDAE48FFF790F9E9
:101FD000AC480068FEF75AFBAB4908600846ABA165
:101FE0000268A24801F01CFE0223A04A04214020FE
:101FF00000E02CE000F03AFD0A220621002000F06B
:102000000BFD0B220621102000F006FD0C220621FC
:10201000202000F001FD02220621302000F0FCFC0F
:102020009C48FFF72BF99B480068FEF72FFBC0F197
:10203000630099490860084698A102688B4801F03E
:10204000EFFD0223894A0621402000F00FFD83485E
:102050000068022820D10D220221202000F0DCFCA3
:102060000E220221302000F0D7FC0F220221402056
:1020700000F0D2FC10220221502000F0CDFC4FF4E1
:102080007A7002F065FB4FF47A7002F061FBFFF7A3
:10209000BDFE03207149086070480068032872D1B2
:1020A000804881A10268714801F0BAFD02236F4A9D
:1020B0000021702000F0DAFC67480068022804D193
:1020C00078480068401C7749086076480068052811
:1020D00002D101207349086072480068012806D0C7
:1020E000022817D0032828D004284DD138E05A48B8
:1020F0000068032804D16D480068401C6B490860E3
:1021000055480068042804D168480068401E6749A3
:1021100008603AE050480068032804D16448006829
:10212000401C634908604C480068042804D160489A
:102130000068401E5E49086027E0474800680328A1
:1021400004D15C480068401C5A4908604248006855
:10215000042804D157480068401E5649086014E01E
:102160003D480068032804D153480068401C524988
:10217000086039480068042804D14F480068401EB0
:102180004D49086001E0D1E000BF00BF00221146C8
:10219000104600F041FC02220021102000F03CFC1F
:1021A0000D220021202000F037FC0E2200213020DB
:1021B00000F032FC3D4841A102682C4801F030FD9E
:1021C00002232A4A0021402000F050FC0322022171
:1021D000002000F021FC04220221102000F01CFC51
:1021E00001220221202000F017FC0222114630209B
:1021F00000F012FC2E4821A102681C4801F010FDDD
:1022000002231A4A1946402000F030FC02232DA276
:102210000421002000F02AFC0D220421202000F0DF
:10222000FBFB51E03939390038383800373737008F
:102230003636360035353500343434003333330028
:10224000323232003131310031313200313133003C
:102250003131340065080020E4070020E007002049
:10226000B1070020B00700203A256400B207002023
:102270003A25642000000000FC0700203A2564484D
:102280004C200000C4070020E80700203A25644DD8
:102290004D502000C8070020EC0700203A25644C70
:1022A0004D200000DC07002025640000CC07002042
:1022B000D0070020D4070020D80700203A25644327
:1022C00020000000434F32000E220421302000F095
:1022D000A3FBFD48FDA10268FE4801F0A1FC02231A
:1022E000FC4A0421402000F0C1FB0A220621002004
:1022F00000F092FB0B220621102000F08DFB0D2236
:102300000621202000F088FB0E220621302000F05C
:1023100083FBF148AFF27C010268EE4801F080FCDB
:102320000223EC4A0621402000F0A0FBEB480068A5
:10233000042820D113220221202000F06DFB14225A
:102340000221302000F068FB0F220221402000F023
:1023500063FB10220221502000F05EFB4FF47A70E4
:1023600002F0F6F94FF47A7002F0F2F9FFF74EFD41
:102370000520DA490860D948006805287ED1D84888
:102380000068022804D1D7480068401CD54908607D
:10239000D4480068022802D10020D24908601822DF
:1023A0000021084600F038FB19220021102000F01F
:1023B00033FB0223CCA20021202000F057FBC948A8
:1023C0000068012805D115220021302000F024FBEF
:1023D00004E016220021302000F01EFBC0480068F7
:1023E000032804D1C1480068401CC0490860BF48A8
:1023F0000068022802D10020BC4908601A2202218C
:10240000002000F009FB1B220221102000F004FB39
:102410000223B5A21946202000F028FBB34800682B
:10242000012805D115220221302000F0F5FA04E040
:1024300016220221302000F0EFFAA9480068042893
:1024400004D1AB480068401CA9490860A84800684E
:10245000022802D10020A64908601722042100208A
:1024600000F0DAFA0A220421102000F0D5FA022343
:102470009DA20421202000F0F9FA00E00EE09C4823
:102480000068012805D115220421302000F0C4FA8B
:1024900004E016220421302000F0BEFA91480068C2
:1024A00001280BD09348006887490968884205DCF9
:1024B0009148007891490968884203DD01209049DC
:1024C000086002E000208E49086088480068012802
:1024D00005D08C4800688C490968884204DA0120DC
:1024E0008749091D086003E000208549091D08602F
:1024F0007F480068012805D084480068764909684B
:10250000884203DA00208249086002E00120804905
:10251000086080480088401C7E4908800846008882
:10252000142813D1002008806C486B49664A764B0A
:10253000CDE90232CDE90410704874496D4B714AFF
:10254000CDE9001074496C4802F09EF973480068A8
:1025500073490968884224D0704800688078102840
:102560000CD06E4800688078822803D16D480078CE
:10257000012803D06C480078012812D16748006810
:1025800002F0E6F96548006800F5007063490860EC
:102590000846006865490968884202D164485F4975
:1025A0000860644800686449096888427ED06148D0
:1025B00000688078202826D15E4800684079062887
:1025C0001CD2DFE800F003070B0F13170120554959
:1025D000087017E000205949087013E0002057499F
:1025E00008700FE00020554908700BE000205349A7
:1025F000087007E000205149087003E000204F49AF
:10260000087000BF4AE04B4800688078902815D1D8
:1026100048480068807910B101280AD100E000BF65
:1026200001204149087000204549087000F05AFC1B
:1026300003E000204149087000BF2FE03D480068DA
:102640008078D02811D13E480078012803D100209D
:102650003B49087022E03A48007801281EDD00203E
:102660003749087000F03EFC18E032480068807876
:10267000302813D12F480068FFF73EFA002406E007
:102680002C480068005D12A90855601C84B2B4F59E
:10269000007FF5DB12A8FDF79DFD84B22548006898
:1026A00000F5007023490860084600E007E0006874
:1026B00024490968884202D123481E4908602348FA
:1026C00000682349096846E0D40700203A25645091
:1026D0004D4D2000B2070020D8070020E007002061
:1026E000E4070020F40700203A000000F80700206B
:1026F000F0070020E8070020B0070020CC070020EA
:10270000A0812142FC070020D0070020EC07002018
:10271000AC012142AE070020B107002034080020A0
:1027200030080020660800206708002038080020D4
:102730002826002028080020240800206508002002
:10274000640800202C0800202816002040080020E3
:102750003C08002092E088427DD011A912A802F026
:1027600043F820B156480068401C5549086010A93C
:1027700012A802F039F820B151480068401E5049B3
:1027800008600FA912A802F02FF820B14D48006888
:10279000401C4C4908600EA912A802F025F820B18F
:1027A00048480068401E474908600DA912A802F079
:1027B0001BF820B144480068401C434908600CA93C
:1027C00012A802F011F820B13F480068401E3E49AF
:1027D00008600BA912A802F007F820B13B48006876
:1027E000401C3A4908600AA912A801F0FDFF20B177
:1027F00036480068401E3549086009A912A801F052
:10280000F3FF20B132480068401C3149086008A934
:1028100012A801F0E9FF20B12E480068401C2D49A4
:10282000086007A912A801F0DFFF20B12A4800685C
:10283000401C2949086006A912A801F0D5FF30B153
:1028400026480068401C25490860FFF7DFFA002091
:102850002349096800E010E081F8EE002048006894
:1028600000F500701E490860084600681D490968A7
:10287000884221D11C481A4908601DE000211B48EC
:1028800000F031FC00211A4800F02DFC002019490D
:102890000880C8211848FDF780FC01F023F858B9DA
:1028A000012016490870002012490880C8211248EA
:1028B000FDF773FCFEF792FF0DF5127D10BD0000D1
:1028C000CC070020D0070020D4070020D807002024
:1028D000F4070020F8070020F0070020E0070020A0
:1028E000400800204408002028360020000800404E
:1028F0000004004008080020580C00206508002053
:1029000070B50646002415E004F1B001C8B201F02C
:1029100079F9002001F076F9102001F073F9002513
:1029200004E0304601F075F9681CC5B2802DF8DB73
:10293000601CC4B2082CE7DB70BD10B5FEF716FDB5
:10294000642001F005FFAE2001F05CF9202001F0C9
:1029500059F9102001F056F9B02001F053F9C820C0
:1029600001F050F9002001F04DF9102001F04AF972
:10297000402001F047F9812001F044F9FF2001F0E7
:1029800041F9A12001F03EF9A62001F03BF9A82071
:1029900001F038F93F2001F035F9A42001F032F9B7
:1029A000D32001F02FF9002001F02CF9D52001F0FF
:1029B00029F9F02001F026F9D92001F023F922208D
:1029C00001F020F9DA2001F01DF9122001F01AF9C6
:1029D000DB2001F017F9202001F014F98D2001F01F
:1029E00011F9142001F00EF9AF2001F00BF910BD20
:1029F00070B504460D4605F1B001C8B201F002F908
:102A0000102141EA141001F0FDF804F00F0141F02B
:102A1000010001F0F7F870BD2DE9F04180460E4647
:102A2000174600247D0131464046FFF7E1FF00BF15
:102A300006E00D49485D01F0ECF86D1C601CC4B265
:102A4000102CF6DB701CC1B24046FFF7D1FF00240A
:102A500006E00549485D01F0DCF86D1C601CC4B25D
:102A6000102CF6DBBDE8F0811C0000202DE9F047BA
:102A70000646894617469A464FF00008002400256E
:102A8000BAF1010F03D0BAF1020F5ED125E020E0C8
:102A9000785D203800F0FF087E2E04DD002609F165
:102AA000010000F0FF0949463046FFF7A1FF00246E
:102AB00009E008EB4801264A02EB4101085D01F0FC
:102AC000A8F8601CC4B2062CF3DBB01DC6B2681CAB
:102AD000C5B2785D0028DBD137E032E0785D203880
:102AE00000F0FF08782E04DD002609F1010000F057
:102AF000FF0949463046FFF77BFF002407E004EB5F
:102B00000811144A505C01F084F8601CC4B2082C0F
:102B1000F5DB09F10100C1B23046FFF769FF00247F
:102B200008E004EB081108310A4A505C01F071F822
:102B3000601CC4B2082CF4DB06F10800C6B2681CA5
:102B4000C5B2785D0028C9D100BF00BFBDE8F087DD
:102B50009C650008C467000870470000014600201B
:102B6000034A506820F4404008435060704700001A
:102B70000010024029B1064AD2690243044BDA61CF
:102B800004E0034AD2698243014BDA6170470000D6
:102B90000010024029B1064A12690243044B1A612F
:102BA00004E0034A12698243014B1A617047000036
:102BB0000010024029B1064A92690243044B9A610F
:102BC00004E0034A92698243014B9A617047000016
:102BD0000010024029B1064AD2680243044BDA6071
:102BE00004E0034AD2688243014BDA607047000078
:102BF0000010024030B500210022002400232D4D9A
:102C00006D6805F00C0121B1042905D0082923D1F4
:102C100005E0294D056022E0274D05601FE0254DA8
:102C20006D6805F47012234D6D6805F4803402253B
:102C300005EB92421CB9214D554305600BE01D4D3B
:102C40006D6805F400351DB11C4D5543056002E06B
:102C5000194D5543056002E0174D056000BF00BFE8
:102C6000144D6D6805F0F0010909154D6B5C0568A0
:102C7000DD4045600F4D6D6805F4E061090A104DB7
:102C80006B5C4568DD4085600A4D6D6805F46051F8
:102C9000C90A0B4D6B5C4568DD40C560054D6D682C
:102CA00005F44041890B074D6B5CC568B5FBF3F536
:102CB000056130BD0010024000127A0000093D009D
:102CC000100800202008002008B501210820FFF787
:102CD00071FF03208DF8020010208DF803004FF4DF
:102CE0004070ADF8000069460148FEF7FAF908BDEA
:102CF000000C0140704710B500F002F810BD000054
:102D00000CB50020019000903348006840F48030FA
:102D10003149086000BF3048006800F4003000907E
:102D20000198401C0190009818B90198B0F5A06F67
:102D3000F1D12948006800F4003010B10120009062
:102D400001E0002000900098012843D1234800684A
:102D500040F01000214908600846006820F0030098
:102D600008600846006840F0020008601A484068A1
:102D7000194948600846406848600846406840F481
:102D8000806048600846406820F47C10486008462F
:102D9000406840F4E81048600846006840F08070E1
:102DA000086000BF0C48006800F000700028F9D0EF
:102DB0000948406820F00300074948600846406819
:102DC00040F00200486000BF0348406800F00C007B
:102DD0000828F9D10CBD000000100240002002407C
:102DE000042808D14FF0E021096941F004014FF0B7
:102DF000E022116107E04FF0E021096921F00401B0
:102E00004FF0E022116170477047000010B5134881
:102E1000006840F001001149086008464068104908
:102E200008400E494860084600680E4908400B49B2
:102E300008600846006820F4802008600846406862
:102E400020F4FE0048604FF41F008860FFF753FF36
:102E50004FF000600449086010BD000000100240FF
:102E60000000FFF8FFFFF6FE08ED00E01FB54FF48D
:102E7000A060FEF7C1FF01210220FFF77BFE18488A
:102E800000F03EF944F61F60ADF8080041F61F401F
:102E9000ADF804000020ADF80600ADF80A0001A965
:102EA0000F4800F03DFA01210D4800F019F9012208
:102EB00011460B4800F029FA0121094800F013F9E6
:102EC0001D208DF8000001208DF8010000208DF8F4
:102ED000020001208DF803006846FEF755FF1FBD74
:102EE000000400401FB54FF4A060FEF785FF0121EC
:102EF0000220FFF73FFE184800F002F94EF65F206F
:102F0000ADF8080048F69F40ADF804000020ADF889
:102F10000600ADF80A0001A90F4800F001FA0121EE
:102F20000D4800F0DDF8012211460B4800F0EDF9E4
:102F30000121094800F0D7F81D208DF8000002207B
:102F40008DF8010001208DF802008DF8030068461D
:102F5000FEF71AFF1FBD00000004004010B501215C
:102F6000164800F0C1F938B315480078062819D280
:102F7000DFE800F003060B0C0D10FEF731FE11E048
:102F8000FFF774FFFEF72CFE0CE000BF00BFFEF75A
:102F900027FE07E000200B4908700021074800F0D9
:102FA000A2F800BF00BF06480078401C0449087022
:102FB0000121024800F094F810BD00000004004018
:102FC000640800206508002010B50121214800F0A8
:102FD0008BF900283DD0204802882049204800680D
:102FE000801CFDF7C1F81C490888C11700EB11616E
:102FF000090A1B4A1268117017490888C11700EBAB
:1030000011610912A0EB0121154A12685170144890
:10301000006800F500701249086008460068114910
:103020000968884202D110480D49086000200A4909
:10303000088000210D4800F071F90021054800F0DA
:1030400052F80021034800F069F90121014800F01D
:1030500047F810BD0008004008080020580C002068
:10306000240800202C08002028160020000400401E
:103070007FB505460C464FF4A060FEF7BDFE01216A
:103080000420FFF777FDADF80850ADF804400020AC
:10309000ADF80600ADF80A0001A9104800F040F9AB
:1030A00001210E4800F01CF8012211460B4800F0E7
:1030B0002CF90021094800F016F81E208DF80000B8
:1030C00001208DF8010000208DF8020001208DF80C
:1030D00003006846FEF758FE7FBD00000008004070
:1030E000CA430282704721B1028842F00102028085
:1030F00004E002884FF6FE731A4002807047000019
:1031000010B504466848844208D10121C014FFF775
:1031100061FD0021E014FFF75DFDC4E0B4F1804FD4
:1031200008D101210846FFF735FD00210120FFF7F6
:1031300031FDB8E05D48844208D101210220FFF74B
:1031400029FD00210220FFF725FDACE0584884420C
:1031500008D101210420FFF71DFD00210420FFF705
:1031600019FDA0E05348844208D101210820FFF74F
:1031700011FD00210820FFF70DFD94E04E48844228
:1031800008D101211020FFF705FD00211020FFF7D5
:1031900001FD88E04948844208D101212020FFF741
:1031A000F9FC00212020FFF7F5FC7CE04448844234
:1031B00008D101214014FFF70DFD00216014FFF735
:1031C00009FD70E03F48844209D10121C804FFF79E
:1031D00001FD00214FF40020FFF7FCFC63E03A48BA
:1031E000844209D101210805FFF7F4FC00214FF4C6
:1031F0008010FFF7EFFC56E03448844209D10121EA
:103200004805FFF7E7FC00214FF40010FFF7E2FC50
:1032100049E02F48844208D101214020FFF7BAFC41
:1032200000214020FFF7B6FC3DE02A48844208D147
:1032300001218020FFF7AEFC00218020FFF7AAFCCF
:1032400031E02548844208D101218015FFF7A2FC16
:103250000021A015FFF79EFC25E02048844209D1FB
:1032600001210804FFF7B6FC00214FF48030FFF77E
:10327000B1FC18E01A48844209D101214804FFF743
:10328000A9FC00214FF40030FFF7A4FC0BE0154827
:10329000844208D101218804FFF79CFC00214FF4EF
:1032A0008020FFF797FC10BD002C01400004004077
:1032B00000080040000C00400010004000140040D6
:1032C00000340140004C01400050014000540140D6
:1032D00000180040001C0040002000400040014059
:1032E000004401400048014030B502460020002360
:1032F0000024158A05EA0103958905EA010413B142
:103300000CB1012000E0002030BD1AB183890B43CD
:10331000838102E083898B43838170478184704776
:10332000002202881D4B98420ED01D4B98420BD0B4
:10333000B0F1804F08D01B4B984205D01A4B9842F1
:1033400002D01A4B984204D14FF68F731A404B8823
:103350001A43174B984207D0164B984204D04FF6A9
:10336000FF431A40CB881A4302808B8883850B88E1
:1033700003850A4B98420BD0094B984208D00E4B5C
:10338000984205D00D4B984202D00D4B984201D186
:103390000B7A03860123838270470000002C0140D2
:1033A000003401400004004000080040000C0040D0
:1033B0000010004000140040004001400044014063
:1033C0000048014070B505460C4622462946134880
:1033D0000068801CFCF7C8FE2046E11704EB116171
:1033E000090A0E4A12681170E11704EB1161091203
:1033F000A4EB0121094A126851700848006800F5E1
:103400000070064908600846006805490968884256
:1034100002D104480149086070BD00003008002056
:10342000380800202826002010B540F225511A48FF
:1034300000F029F970B3184800F0E0F9C4B2242C68
:1034400002D1002015490880144801880088401CDA
:10345000124A1080124844540078242813D10A2CB0
:1034600011D1104601880F48FCF797FE0B480288DF
:103470000B490C48FCF778FE002008490880C82159
:103480000748FCF78AFE05480088C82802DBC820E8
:103490000249088010BD00000038014000080020EB
:1034A000700800203809002010B540F22551184856
:1034B00000F0E9F858B31748007880B91448001DA7
:1034C000008820B31248001D00881349134A12884F
:1034D000885412480088401C1049088017E00C48A6
:1034E000001D00880C490D4A128888540B4800883A
:1034F00020B901210A48FFF7F6FD03E00021084842
:10350000FFF70CFF05480088401C0449088010BDE7
:103510000044004065080020580C002008080020E6
:103520000008004010B540F225511A4800F0ABF8F1
:1035300070B3184800F062F9C4B2242C02D1002004
:1035400015490880144801880088401C124A1080E0
:10355000124844540078242813D10A2C11D1104663
:1035600001880F48FCF719FE0B4802880B490C48EC
:10357000FCF7FAFD002008490880C8210748FCF73D
:103580000CFE05480088C82802DBC82002490880D4
:1035900010BD0000004800400E080020401200202E
:1035A0000813002001F40072B2F5007F00D100BFC3
:1035B000CA430280704721B1828942F4005282815D
:1035C00004E082894DF6FF731A4082817047000043
:1035D00010B504462048844209D101218803FFF731
:1035E000F9FA00214FF48040FFF7F4FA32E01B486B
:1035F000844209D101214804FFF7CCFA00214FF49D
:103600000030FFF7C7FA25E01548844209D10121AF
:103610008804FFF7BFFA00214FF48020FFF7BAFAC1
:1036200018E01048844209D10121C804FFF7B2FA1A
:1036300000214FF40020FFF7ADFA0BE00A48844266
:1036400008D101210805FFF7A5FA00214FF48010E9
:10365000FFF7A0FA10BD0000003801400044004010
:1036600000480040004C004000500040024600204E
:10367000B1F5007F00D100BF13880B400BB10120D2
:1036800000E00020704770B50246002400230025AA
:10369000002040F66A16B14200D100BFC1F34215C6
:1036A00001F01F03012606FA03F3012D02D19689CA
:1036B000334006E0022D02D1168A334001E0968A9B
:1036C00033400C12012606FA04F41688344013B174
:1036D0000CB1012000E0002070BDF0B503460024CD
:1036E00000260025002040F66A17B94200D100BF2D
:1036F0001846C1F3421401F01F06012707FA06F528
:10370000012C01D10C3004E0022C01D1103000E07A
:1037100014301AB107682F43076002E00768AF430F
:103720000760F0BD2DE9F04786B005460E4600243F
:10373000A24600BFA1460027B08900B100BF2F46B6
:103740002C8A4CF6FF700440F08804432C82AC892C
:103750004EF6F3100440B08831890843718908435C
:103760000443AC81AC8A4FF6FF400440B089044367
:10377000AC8201A8FFF73EFA1F48874202D1DDF86C
:1037800010A001E0DDF80CA0A88900F4004040B1D1
:103790000AEBCA0000EB0A1031684900B0FBF1F8EF
:1037A00007E00AEBCA0000EB0A1031688900B0FBA1
:1037B000F1F86420B8FBF0F004012009642101FB5A
:1037C0001089A88900F4004040B1322000EBC90004
:1037D000B0FBF1F000F00700044308E0322000EBFA
:1037E00009106421B0FBF1F000F00F0004432C81BC
:1037F00006B0BDE8F0870000003801400146888827
:10380000C0F308007047C1F30802828070470000CF
:1038100008B501210420FFF7CDF90420ADF8000020
:1038200003208DF8020018208DF803006946074830
:10383000FDF757FC0820ADF8000004208DF80300C8
:1038400069460248FDF74DFC08BD00000008014034
:1038500000BFFEE710B50446FFF7DAFF204600F090
:1038600001F810BD10B586B0044601214804FFF7E9
:1038700081F91B48FFF7ACFE4FF4A060FEF7BCFADD
:1038800026208DF8040000208DF805008DF8060034
:1038900001208DF8070001A8FEF776FA02940020B7
:1038A000ADF80C00ADF80E00ADF81000ADF8140046
:1038B0000C20ADF8120002A90948FFF733FF2021C0
:1038C0000748FFF76FFE012240F225510448FFF739
:1038D00004FF01210248FFF76EFE06B010BD000094
:1038E0000044004010B5322000F014F908B1012066
:1038F00010BD322115A000F057F908B10220F7E7FA
:103900001548007860B9322114A000F04DF908B1D3
:103910000320EDE71E2000F0BDF808B10420E7E722
:10392000322112A000F040F908B10820E0E732216E
:1039300012A000F039F908B10920D9E7642000F09D
:1039400023F808B10A20D3E70020D1E741542B43E4
:10395000574D4F44453D31006808002041542B43EA
:10396000574155544F434F4E4E3D300041542B4329
:1039700049504D4F44453D310000000041542B4318
:1039800049504D55583D300010B504460020264999
:103990000880C8212548FCF700FC25482549026815
:1039A00025A000F0F5FF16E0642000F0D1FE29A16B
:1039B0001E48FCF7FDFB00B111E028A11B48FCF7F5
:1039C000F7FB08B1012010BD26A11848FCF7F0FB59
:1039D00008B10220F7E7201EA4F10104E4D100BFE2
:1039E000002C01DC0320EEE700200F490880C821ED
:1039F0000E48FCF7D2FB20A000F0CAFF08E06420CC
:103A000000F0A6FE20A10948FCF7D2FB00B103E0BC
:103A1000201EA4F10104F2D100BF002C01DC04201F
:103A2000D1E70020CFE7000008080020580C002054
:103A300054080020A847002041542B4349505354B8
:103A40004152543D22544350222C222573222C25CE
:103A5000640D0A00434F4E4E45435400434C4F53B0
:103A600045440000414C524541445920434F4E4E7D
:103A7000454354454400000041542B4349505345AD
:103A80004E440D0A000000000D0A4F4B0D0A0D0AAE
:103A90003E00000010B50446002010490880C821EF
:103AA0000F48FCF77AFB0FA211A113A000F070FFE2
:103AB00009E04FF47A7000F04BFE15A10848FCF7BE
:103AC00077FB00B103E0201EA4F10104F1D100BF97
:103AD000002C01DC012010BD0020FCE708080020BC
:103AE000580C002077616C703133313400000000D5
:103AF00073616265726D6D0041542B43574A4150AA
:103B00003D222573222C222573220D0A000000007D
:103B10004F4B000010B5044600224FF4807110484E
:103B2000FDF775FB4FF4FA7000F012FE012211024E
:103B30000B48FDF76CFB08E0642000F009FE09A1CA
:103B40000A48FCF735FB00B103E0201EA4F1010494
:103B5000F2D100BF002C01DC012010BD0020FCE7E9
:103B6000000801407265616479000000580C002073
:103B700008B501210420FFF71DF84FF48070ADF85F
:103B8000000003208DF8020010208DF80300694624
:103B90000448FDF7A6FA012211020248FDF737FB9F
:103BA00008BD00000008014070B505460C46002025
:103BB0000F490880C8210F48FCF7EFFA29460EA0EC
:103BC00000F0E6FE08E0642000F0C2FD0CA1094808
:103BD000FCF7EEFA00B103E0201EA4F10104F2D1DB
:103BE00000BF002C01DC012070BD0020FCE70000BC
:103BF00008080020580C002025730D0A0000000062
:103C00004F4B000010B5044621460020FDF7C0FCD4
:103C100010BD10B5044621464020FDF7B9FC10BD8B
:103C20000FB4084B10B504A902AA039800F0F0F8ED
:103C3000044602A9002000F05EFD204610BC5DF89D
:103C400014FB0000F746000837B514460846064B3B
:103C50006A46214600F0B8F904466946002000F0A3
:103C60004FFD20463EBD00000147000802E008C8A5
:103C7000121F08C1002AFAD170477047002001E0E6
:103C800001C1121F002AFBD1704700002DE9FF5F20
:103C900082B00021DDE90430020DDDF840B00343BD
:103CA00018D044F61050A2F2FF3242431514119876
:103CB00001281FD0A5EB0B00401C5FEA000A4FF063
:103CC00000064E4FDFF83891B046504615D5CAF180
:103CD000000413E0119801244AA3012801D16FEADE
:103CE0000B010298119AC0E90031C0E9024206B006
:103CF000BDE8F09FCBF10000DFE704460021404A19
:103D0000491842EB0450CDE9001012E0E00707D05B
:103D100032463B4640464946FCF7D2FB8046894640
:103D200032463B4610461946FCF7CAFB06460F468C
:103D30006410002CEAD1DDE90401DDE90023BAF1C9
:103D4000000F06DAFCF7BCFB42464B46FCF7B8FB1B
:103D500005E0FCF727FC42464B46FCF723FC0446F3
:103D60000E460022284BFCF7BFFD03D84FF0FF3072
:103D7000014607E00022254B20463146FCF7F9FAC0
:103D8000FCF799FD102409E0002C0ADB0A2200232D
:103D9000FCF7ABFC039B30321A55641E50EA01025B
:103DA000F2D1641C039AC4F111031444119A012A3C
:103DB00003D0012208430DD10AE0084304D00020BB
:103DC0004FF0110B119072E7A3EB0B056D1E0DE088
:103DD0005B4504DD4FF0000205F1010504E003DA64
:103DE0004FF00002A5F10105002AECD002981199CC
:103DF000C0E90231C0E9004579E700000000144045
:103E00000000F03F300000000000F0430000E03F01
:103E10002DE9FF4F8BB09A460F460546002606E077
:103E200025280BD052460D9990476D1C761C28789A
:103E30000028F5D10FB03046BDE8F08F0024A04631
:103E40000122604900E0044315F8013F203B02FADB
:103E500003F00842F7D128782E2817D115F8010F62
:103E600044F004042A280ED06FF02F022878A0F125
:103E7000300109290AD808EB880102EB410100EB67
:103E800001086D1CF2E757F8048B6D1C287869282F
:103E90003ED006DC0028CDD063280BD0642804D1A6
:103EA00036E0732810D075284BD052460D999047B4
:103EB000761C85E017F8040B8DF8000000208DF8C3
:103EC0000100E946012003E057F8049B4FF0FF3062
:103ED00061074FF0000401D40AE0641C44450DDA88
:103EE0008442FADB19F804100029F6D106E0641CBC
:103EF0008442FCDB19F804100029F8D1264404E0C0
:103F000019F8010B52460D999047641EF8D257E0FC
:103F100001CF4FF00A0B002802DA40422D2102E0C7
:103F2000210504D52B218DF82410012103E0E107A0
:103F300005D02021F7E70DF1200908910CE00021C0
:103F4000F9E701CF4FF00A0BF9E75946FCF7B7FB49
:103F500001F1300209F8012D0028F6D1ADEB09007E
:103F600000F1200B600701D44FF00108D84502DDB5
:103F7000A8EB0B0000E000208046002406E009A822
:103F80005246005D0D999047641C761C0898844247
:103F9000F5DB04E0302052460D999047761CB8F1CD
:103FA0000001A8F10108F5DC05E019F8010B524603
:103FB0000D999047761CBBF10001ABF1010BF4DCCD
:103FC0006D1C34E7092801002DE9FF4F95B09B4691
:103FD0008946064600250FE2252877D1002427468A
:103FE000F84A0121059400E0044316F8013F203B04
:103FF00001FA03F01042F7D130782A2811D06FF07F
:104000002F033078A0F13002092A16D8059A44F01F
:10401000020402EB820203EB42021044761C05907C
:10402000EFE759F8042B0592002A03DA504244F4D2
:104030000054059044F00204761C30782E2816D1E6
:1040400016F8010F44F004042A280DD06FF02F0257
:104050003078A0F13003092B09D807EB870302EB76
:104060004303C718761CF3E759F8047B761C3078B5
:104070006C280FD006DC4C2817D068280DD06A2891
:1040800014D104E0742810D07A280FD10DE044F444
:1040900000140AE044F4801401E044F440147278FF
:1040A000824202D104F58014761C761C3078662892
:1040B0000BD013DC582877D009DC002875D04528B0
:1040C000F6D04628F4D047281AD19DE118E063289D
:1040D00035D0642879D0652812D195E1702873D045
:1040E00008DC6728F1D069286FD06E280DD06F28C2
:1040F00006D1B5E073282CD0752875D0782874D0F7
:104100005A46179990476D1C75E1C4F30250022876
:1041100009D003280DD0D9F8001004280DD00D6067
:1041200009F1040967E1D9F80010EA17C1E9005262
:10413000F6E7D9F800100D80F2E70D70F0E719F8F6
:10414000041B8DF8001000208DF80100EA460120C4
:1041500003E059F804AB4FF0FF3061074FF0000166
:1041600002D40DE008F101018846B9420FDA80451A
:10417000F8DB1AF808100029F4D108E008F1010171
:1041800088468142FADB1AF808100029F6D1059812
:104190005B46A0EB080721463846179A00F094FAD0
:1041A000284400EB080507E04DE029E10DE01AF88E
:1041B000010B5A4617999047B8F10108F7D25B46B0
:1041C00021463846179A13E142E00A220092C4F3CE
:1041D00002524FF0000A022A08D059F804CB032AF1
:1041E0004FEAEC710AD00DE029E02AE009F107015D
:1041F00021F00702F2E802C1914609E00FFA8CFCB7
:104200004FEAEC71042A03D14FFA8CFC4FEAEC71AF
:10421000002907DA0A460021DCF1000C61EB0201FB
:104220002D2202E0220504D52B228DF80420012244
:1042300003E0E20701D02022F7E7904659E00A2187
:1042400002E010220DE010214FF0000A00910BE077
:1042500010224FF0000A44F004040827009203E003
:1042600008224FF0000A0092C4F30252022A05D03D
:1042700059F804CB0021032A08D009E009F107010D
:1042800021F00702F2E802C1914605E01FFA8CFC1A
:10429000042A01D10CF0FF0C4FF00008220728D5AA
:1042A000702806D0009B83F0100353EA0A0305D060
:1042B0000EE040228DF80420012208E05CEA0102B1
:1042C00006D030228DF804208DF805000222904699
:1042D000009B83F0080353EA0A030AD15CEA010257
:1042E00001D1620705D530228DF804204FF0010876
:1042F0007F1E582804D034A003900EA802900DE031
:1043000036A0F9E753466046009AFCF7EEF984467A
:104310000398825C0298401E029002705CEA0100E1
:10432000F0D1029806A9081A00F1200A600702D508
:1043300024F4803400E00127574502DDA7EB0A0092
:1043400000E0002000EB0A01009005984144401A6B
:104350000590E00306D45B462146179A059800F0C5
:10436000B3F90544002706E001A85A46C05D179935
:1043700090476D1C7F1C4745F6DBE0030CD55B4680
:104380002146179A059800F09FF9054404E0302073
:104390005A46179990476D1C0099481E00900029B5
:1043A000F5DC08E0029802995A460078491C02910F
:1043B000179990476D1CBAF10001AAF1010AF1DCCE
:1043C00065E10000092801003031323334353637D9
:1043D0003839616263646566000000003031323351
:1043E00034353637383941424344454600000000F1
:1043F00000F058F90544761C307800287FF4ECADC5
:1044000019B02846BDE8F08F620700D4062709F1ED
:10441000070222F0070CFCE80223E14603F0004803
:104420005FEA080C02D00FF2702C0DE05FEA045C2A
:1044300002D50FF2682C07E05FEAC47C02D00FF2CD
:10444000602C01E0AFF2700C4FF0FF3823F0004316
:10445000CDF850C065280CD006DC452809D0462888
:104460001DD047283DD13DE0662818D067287ED171
:1044700038E00021112F01DB112000E0781CCDE98C
:10448000000106A90EA8FFF701FCDDE90F010E9A55
:1044900003910021009207F1010A04914DE04FF0D1
:1044A00000400097CDE9011006A90EA8FFF7EEFB2A
:1044B000DDE90F0203920E9B11990022DDF80CA09A
:1044C0000093049211B9791C00EB010AB7EB0A00C2
:1044D00004D4C0F1FF3007F1010A0490AAEB0700F1
:1044E000019044E0012F00DA01270021112F01DDA6
:1044F000112000E03846CDE9000106A90EA8FFF71B
:10450000C5FBDDE90F010E9A039100210491009291
:10451000BA4621070CD40399514500DA8A46BAF10C
:10452000010F05DD009AAAF10101515C302908D084
:10453000B84202DA10F1040F06DA0121CDE90110C8
:1045400015E0AAF10101E9E7002805DC049901441E
:104550000491AAEB000102E0411C514500DD8A46AE
:104560000499401A401C01904FF00040029020072F
:1045700004D40198504501DBCDF8048000208DF86B
:104580004F0002980DF14F07B0F1004F25D02B20BE
:104590000E9002984FF0020800280CDA4042029078
:1045A0002D200E9007E00A210298FCF788F83031A0
:1045B000029007F8011DB8F10001A8F10108F2DC32
:1045C00002980028EFD1791E0E980870307800F01C
:1045D000200040F0450007F8020D12A8C01B00F1B2
:1045E00007081498007800B1012000EB0A01019837
:1045F00001EBE07105984144401A401E0590E0032C
:1046000006D45B462146179A059800F05DF80544EC
:104610001498007818B15A46179990476D1CE0031A
:1046200024D55B462146179A059800F04DF80544BD
:104630001CE00498002807DBDDE90301884203DD64
:104640000098405C179901E0179930205A4690472E
:10465000049805F10105401C04900198401E01904A
:1046600004D12E205A46179990476D1CBAF10001CB
:10467000AAF1010ADDDC05E017F8010B5A4617998B
:1046800090476D1CB8F10001A8F10108F4DC5B460D
:104690002146179A0598ABE62D0000002B0000007C
:1046A000200000002DE9F041044600251E46174673
:1046B000880404D405E039462020B0476D1C641EF0
:1046C000F9D52846BDE8F0812DE9F04104460025E2
:1046D0001E469046C80301D5302700E020278804F5
:1046E00004D505E041463846B0476D1C641EF9D537
:1046F0002846BDE8F0810A68531C0B6010707047B3
:104700000A68531C0B6010707047000010B56FF002
:104710000400FEF765FB0A4800680A49B0FBF1F0A7
:10472000094908700846007800EB4001C1EBC01051
:104730004FF6FF7101EAC0000449088010BD000077
:104740000000002000127A00140000201600002053
:104750000146114A12884A434FF0E0235A61002271
:104760009A611A46126942F001021A6100BF4FF0C5
:10477000E022106900F001021AB100F48032002A30
:10478000F5D04FF0E022126922F001024FF0E02351
:104790001A6100229A617047160000200146114AF2
:1047A00012784A434FF0E0235A6100229A611A4678
:1047B000126942F001021A6100BF4FF0E022106955
:1047C00000F001021AB100F48032002AF5D04FF057
:1047D000E022126922F001024FF0E0231A61002268
:1047E0009A617047140000202DE9F04780460D467D
:1047F0004FF400792846FBF7EDFC0746002612E04F
:10480000002407E0301918F80000295D884200D024
:1048100002E0641CBC42F5DB00BFBC4202D10120B7
:10482000BDE8F087761CA9EB0700B042E8DA00206B
:10483000F6E74FF4A060FDF7DFFAFFF767FFFEF73A
:104840007CF8FCF7E9FEFCF765FFFEF73DFAFCF7A4
:1048500039FAFCF7F1F9FCF7A9F900BFFCF79EFB68
:104860000028FBD1FDF7D2FA4FF4E1514FF49670D6
:10487000FEF7FEFBFCF791F9FCF762FFFCF768FA24
:1048800001E0FDF7C9FAFCE72DE9F04FD1B004468D
:104890000D4616461F460DF5B47898E800072078B7
:1048A000109028780F9030881FFA80FB38680E909F
:1048B000D8F800000D90D9F800000C90DAF800004C
:1048C0000B905D9800680A905E98006809905F9868
:1048D0000068089008A80BC80B9ACDE90423CDE91D
:1048E00006100CA807C8CDE900B2CDE902100949AD
:1048F00011A8DDE90F32FFF793F911A8FBF76AFC65
:10490000024611A9079004A0FDF778F951B0BDE85F
:10491000F08F0000F46D00082F7379732F6B3071E6
:10492000646C4A59506F797A2F6465766963652D96
:10493000767A2F7468696E672F6576656E742F704E
:10494000726F70657274792F706F7374000000005D
:1049500000BF0E4A128802F04002002AF9D001215D
:104960000CE04A1C825C094B1B1D1A8000BF074AE1
:10497000128802F04002002AF9D0491C43780278DC
:1049800003EB02228A42ECDA704700000044004048
:104990000FB438B505A800900F48009A0499FFF7A6
:1049A00053F9002000900C48FBF714FC85B200245A
:1049B0000DE000BF40210948FEF758FE0028F9D05D
:1049C0000548015D0548FEF71EFF601C84B2AC423D
:1049D000EFDB38BC5DF814FBE80F0020004400401A
:1049E000014601F00F010A2902DA01F1300001E06D
:1049F00001F1570040B270472DE9F043BDB00646C3
:104A0000884615461F46DDF810910EB105B117B95D
:104A10003DB0BDE8F083B9F1400F00DDF8E740217B
:104A200016A8FBF7BAFB402106A8FBF7B6FB4A46DF
:104A3000394616A8FBF798FB4A46394606A8FBF705
:104A400093FB00240CE016A8005D80F0360016A948
:104A5000085506A8005D80F05C0006A90855641C96
:104A6000402CF0DB26A800F0AFF826A801F042FDAC
:104A7000402216A926A801F053FD4246314626A839
:104A800001F04EFD01A926A800F02AF826A800F0A2
:104A90009BF826A801F02EFD402206A926A801F0C9
:104AA0003FFD142201A926A801F03AFD01A926A87C
:104AB00000F016F800240FE001A9095D0811FFF7C6
:104AC0008FFF05F8140001A9085DFFF789FF012198
:104AD00001EB44016854641C142CEDDB00BF97E724
:104AE0002DE9FC4704460D462068400F616840EA06
:104AF000C1062068C700300E8DF80000300C8DF81C
:104B00000100300A8DF80200F0B28DF80300380E73
:104B10008DF80400380C8DF80500380A8DF8060071
:104B2000F8B28DF80700207800F03F08B8F1380F90
:104B300002D2C8F1380001E0C8F1780081464A4647
:104B40002049204601F0ECFC08226946204601F08D
:104B5000E7FCA068000E2870A068000C687020892F
:104B6000000AA870207AE870E068000E2871E068FA
:104B7000000C6871A089000AA871207BE871206987
:104B8000000E28722069000C6872208A000AA87240
:104B9000207CE8726069000E28736069000C6873FD
:104BA000A08A000AA873207DE873A069000E28740B
:104BB000A069000C6874208B000AA874207EE87439
:104BC000BDE8FC87B46D000810B504465C212046A2
:104BD000FBF7E3FA10BD00002DE9F04390B0074663
:104BE0000E4696F800C04FEA0C6C96F801804CEA2D
:104BF000084C96F802804CEA082C96F803804CEAA0
:104C0000080CCDF800C096F804C04FEA0C6C96F87A
:104C100005804CEA084C96F806804CEA082C96F879
:104C200007804CEA080CCDF804C096F808C04FEA9B
:104C30000C6C96F809804CEA084C96F80A804CEA0D
:104C4000082C96F80B804CEA080CCDF808C096F8B2
:104C50000CC04FEA0C6C96F80D804CEA084C96F8A4
:104C60000E804CEA082C96F80F804CEA080CCDF820
:104C70000CC096F810C04FEA0C6C96F811804CEA04
:104C8000084C96F812804CEA082C96F813804CEAEF
:104C9000080CCDF810C096F814C04FEA0C6C96F8CA
:104CA00015804CEA084C96F816804CEA082C96F8C9
:104CB00017804CEA080CCDF814C096F818C04FEADB
:104CC0000C6C96F819804CEA084C96F81A804CEA5D
:104CD000082C96F81B804CEA080CCDF818C096F802
:104CE0001CC04FEA0C6C96F81D804CEA084C96F8F4
:104CF0001E804CEA082C96F81F804CEA080CCDF870
:104D00001CC096F820C04FEA0C6C96F821804CEA43
:104D1000084C96F822804CEA082C96F823804CEA3E
:104D2000080CCDF820C096F824C04FEA0C6C96F819
:104D300025804CEA084C96F826804CEA082C96F818
:104D400027804CEA080CCDF824C096F828C04FEA1A
:104D50000C6C96F829804CEA084C96F82A804CEAAC
:104D6000082C96F82B804CEA080CCDF828C096F851
:104D70002CC04FEA0C6C96F82D804CEA084C96F843
:104D80002E804CEA082C96F82F804CEA080CCDF8BF
:104D90002CC096F830C04FEA0C6C96F831804CEA83
:104DA000084C96F832804CEA082C96F833804CEA8E
:104DB000080CCDF830C096F834C04FEA0C6C96F869
:104DC00035804CEA084C96F836804CEA082C96F868
:104DD00037804CEA080CCDF834C096F838C04FEA5A
:104DE0000C6C96F839804CEA084C96F83A804CEAFC
:104DF000082C96F83B804CEA080CCDF838C096F8A1
:104E00003CC04FEA0C6C96F83D804CEA084C96F892
:104E10003E804CEA082C96F83F804CEA080CCDF80E
:104E20003CC0B868F9683A697B69BC694FEA401CC4
:104E30004CEAD06882EA030C0CEA010C8CEA030C01
:104E4000C444DFF8F88FC444DDF80080C4446444EF
:104E50004FEA817C4CEA91014FEA441C4CEAD46849
:104E600081EA020C0CEA000C8CEA020CC444DFF864
:104E7000CC8FC444DDF80480C44463444FEA807C92
:104E80004CEA90004FEA431C4CEAD36880EA010CDC
:104E90000CEA040C8CEA010CC444DFF8A08FC44473
:104EA000DDF80880C44462444FEA847C4CEA9404F0
:104EB0004FEA421C4CEAD26884EA000C0CEA030C6C
:104EC0008CEA000CC444DFF8748FC444DDF80C8015
:104ED000C44461444FEA837C4CEA93034FEA411C8B
:104EE0004CEAD16883EA040C0CEA020C8CEA040C4C
:104EF000C444DFF8488FC444DDF81080C4446044E3
:104F00004FEA827C4CEA92024FEA401C4CEAD0689D
:104F100082EA030C0CEA010C8CEA030CC444DFF8AF
:104F20001C8FC444DDF81480C44464444FEA817C7F
:104F30004CEA91014FEA441C4CEAD46881EA020C25
:104F40000CEA000C8CEA020CC444DFF8F08EC44476
:104F5000DDF81880C44463444FEA807C4CEA90003A
:104F60004FEA431C4CEAD36880EA010C0CEA040CBB
:104F70008CEA010CC444DFF8C48EC444DDF81C8004
:104F8000C44462444FEA847C4CEA94044FEA421CD5
:104F90004CEAD26884EA000C0CEA030C8CEA000CA0
:104FA000C444DFF8988EC444DDF82080C4446144D2
:104FB0004FEA837C4CEA93034FEA411C4CEAD168E8
:104FC00083EA040C0CEA020C8CEA040CC444DFF8FB
:104FD0006C8EC444DDF82480C44460444FEA827C73
:104FE0004CEA92024FEA401C4CEAD06882EA030C79
:104FF0000CEA010C8CEA030CC444DFF8408EC44474
:10500000DDF82880C44464444FEA817C4CEA910175
:105010004FEA441C4CEAD46881EA020C0CEA000C0A
:105020008CEA020CC444DFF8148EC444DDF82C80F2
:10503000C44463444FEA807C4CEA90004FEA431C2E
:105040004CEAD36880EA010C0CEA040C8CEA010CEF
:10505000C444DFF8E88DC444DDF83080C4446244C1
:105060004FEA847C4CEA94044FEA421C4CEAD26832
:1050700084EA000C0CEA030C8CEA000CC444DFF850
:10508000BC8DC444DDF83480C44461444FEA837C61
:105090004CEA93034FEA411C4CEAD16883EA040CC2
:1050A0000CEA020C8CEA040CC444DFF8908DC44472
:1050B000DDF83880C44460444FEA827C4CEA9202B6
:1050C0004FEA401C4CEAD06882EA030C0CEA010C5F
:1050D0008CEA030CC444DFF8648DC444DDF83C80E2
:1050E000C44464444FEA817C4CEA9101DDF834C049
:1050F000DDF820808CEA080CDDF808808CEA080CCA
:10510000DDF800808CEA08054FEA450C4CEAD578BA
:105110004FEA441C4CEAD46981EA020C0CEA000C08
:105120008CEA020CCC44DFF8149DCC44C4446344A4
:10513000CDF800804FEA807C4CEA9000DDF838C062
:10514000DDF824808CEA080CDDF80C808CEA080C71
:10515000DDF804808CEA08054FEA450C4CEAD57866
:105160004FEA431C4CEAD36980EA010C0CEA040CB8
:105170008CEA010CCC44DFF8C49CCC44C4446244A7
:10518000CDF804804FEA847C4CEA9404DDF83CC0FE
:10519000DDF828808CEA080CDDF810808CEA080C19
:1051A000DDF808808CEA08054FEA450C4CEAD57812
:1051B0004FEA421C4CEAD26984EA000C0CEA030C68
:1051C0008CEA000CCC44DFF8749CCC44C4446144A9
:1051D000CDF808804FEA837C4CEA9303DDF800C0E9
:1051E000DDF82C808CEA080CDDF814808CEA080CC1
:1051F000DDF80C808CEA08054FEA450C4CEAD578BE
:105200004FEA411C4CEAD16983EA040C0CEA020C17
:105210008CEA040CCC44DFF8249CCC44C4446044A5
:10522000CDF80C804FEA827C4CEA9202DDF804C093
:10523000DDF830808CEA080CDDF818808CEA080C68
:10524000DDF810808CEA08054FEA450C4CEAD57869
:105250004FEA401C4CEAD06981EA020C8CEA030C4C
:10526000CC44DFF8DC9BCC44C4446444CDF81080CB
:105270004FEA817C4CEA9101DDF808C0DDF834800A
:105280008CEA080CDDF81C808CEA080CDDF8148030
:105290008CEA08054FEA450C4CEAD5784FEA441CE5
:1052A0004CEAD46980EA010C8CEA020CCC44DFF8A9
:1052B000909BCC44C4446344CDF814804FEA807C76
:1052C0004CEA9000DDF80CC0DDF838808CEA080C60
:1052D000DDF820808CEA080CDDF818808CEA0805DF
:1052E0004FEA450C4CEAD5784FEA431C4CEAD369A7
:1052F00084EA000C8CEA010CCC44DFF8449BCC44DB
:10530000C4446244CDF818804FEA847C4CEA94048B
:10531000DDF810C0DDF83C808CEA080CDDF8248054
:105320008CEA080CDDF81C808CEA08054FEA450C75
:105330004CEAD5784FEA421C4CEAD26983EA040C65
:105340008CEA000CCC44DFF8F89ACC44C4446144A5
:10535000CDF81C804FEA837C4CEA9303DDF814C03F
:10536000DDF800808CEA080CDDF828808CEA080C57
:10537000DDF820808CEA08054FEA450C4CEAD57828
:105380004FEA411C4CEAD16982EA030C8CEA040C16
:10539000CC44DFF8AC9ACC44C4446044CDF82080BF
:1053A0004FEA827C4CEA9202DDF818C0DDF80480F6
:1053B0008CEA080CDDF82C808CEA080CDDF82480DF
:1053C0008CEA08054FEA450C4CEAD5784FEA401CB8
:1053D0004CEAD06981EA020C8CEA030CCC44DFF879
:1053E000609ACC44C4446444CDF824804FEA817C64
:1053F0004CEA9101DDF81CC0DDF808808CEA080C4D
:10540000DDF830808CEA080CDDF828808CEA08058D
:105410004FEA450C4CEAD5784FEA441C4CEAD46973
:1054200080EA010C8CEA020CCC44DFF8149ACC44DC
:10543000C4446344CDF828804FEA807C4CEA900055
:10544000DDF820C0DDF80C808CEA080CDDF8348033
:105450008CEA080CDDF82C808CEA08054FEA450C34
:105460004CEAD5784FEA431C4CEAD36984EA000C35
:105470008CEA010CCC44DFF8C899CC44C4446244A3
:10548000CDF82C804FEA847C4CEA9404DDF824C0EB
:10549000DDF810808CEA080CDDF838808CEA080C06
:1054A000DDF830808CEA08054FEA450C4CEAD578E7
:1054B0004FEA421C4CEAD26983EA040C8CEA000CE5
:1054C000CC44DFF87C99CC44C4446144CDF83080AE
:1054D0004FEA837C4CEA9303DDF828C0DDF81480A2
:1054E0008CEA080CDDF83C808CEA080CDDF834808E
:1054F0008CEA08054FEA450C4CEAD5784FEA411C86
:105500004CEAD16982EA030C8CEA040CCC44DFF843
:105510003099CC44C4446044CDF834804FEA827C56
:105520004CEA9202DDF82CC0DDF818808CEA080CF9
:10553000DDF800808CEA080CDDF838808CEA08057C
:105540004FEA450C4CEAD5784FEA401C4CEAD0694A
:1055500081EA020C8CEA030CCC44DFF8E498CC44DA
:10556000C4446444CDF838804FEA817C4CEA910110
:10557000DDF830C0DDF81C808CEA080CDDF8048012
:105580008CEA080CDDF83C808CEA08054FEA450CF3
:105590004CEAD5784FEA441C4CEAD46980EA010C05
:1055A0008CEA020CCC44DFF89898CC44C4446344A1
:1055B000CDF83C804FEA807C4CEA9000DDF834C0A6
:1055C000DDF820808CEA080CDDF808808CEA080CF5
:1055D000DDF800808CEA08054FEA450C4CEAD578E6
:1055E0004FEA431C4CEAD36984EA000C8CEA010CB4
:1055F000CC44DFF84C98CC44C4446244CDF80080DD
:105600004FEA847C4CEA9404DDF838C0DDF824804D
:105610008CEA080CDDF80C808CEA080CDDF80480BC
:105620008CEA08054FEA450C4CEAD5784FEA421C53
:105630004CEAD26983EA040C8CEA000CCC44DFF813
:105640000098CC44C4446144CDF804804FEA837C84
:105650004CEA9303DDF83CC0DDF828808CEA080CA6
:10566000DDF810808CEA080CDDF808808CEA08056B
:105670004FEA450C4CEAD5784FEA411C4CEAD16917
:1056800082EA030C8CEA040CCC44DFF8B497CC44D7
:10569000C4446044CDF808804FEA827C4CEA920210
:1056A000DDF800C0DDF82C808CEA080CDDF81480F1
:1056B0008CEA080CDDF80C808CEA08054FEA450CF2
:1056C0004CEAD5784FEA401C4CEAD06981EA020CDA
:1056D0008CEA030CCC44DFF86897CC44C44464449F
:1056E000CDF80C804FEA817C4CEA9101DDF804C0D2
:1056F000DDF830808CEA080CDDF818808CEA080CA4
:10570000DDF810808CEA08054FEA450C4CEAD578A4
:105710004FEA441C4CEAD46980EA010C8CEA020C82
:10572000CC44DFF81C97CC44C4446344CDF81080CB
:105730004FEA807C4CEA9000DDF808C0DDF8348048
:105740008CEA080CDDF81C808CEA080CDDF814806B
:105750008CEA08054FEA450C4CEAD5784FEA431C21
:105760004CEAD36984EA000C8CEA010CCC44DFF8E3
:10577000D096CC44C4446244CDF814804FEA847C73
:105780004CEA9404DDF80CC0DDF838808CEA080C93
:10579000DDF820808CEA080CDDF818808CEA08051A
:1057A0004FEA450C4CEAD5784FEA421C4CEAD269E4
:1057B00083EA040C8CEA000CCC44DFF88496CC44D9
:1057C000C4446144CDF818804FEA837C4CEA9303CB
:1057D000DDF810C0DDF83C808CEA080CDDF8248090
:1057E0008CEA080CDDF81C808CEA08054FEA450CB1
:1057F0004CEAD5784FEA411C4CEAD16982EA030CA5
:105800008CEA040CCC44DFF83896CC44C4446044A1
:10581000CDF81C804FEA827C4CEA92024FEA401C91
:105820004CEAD06901EA020C41EA020808EA0308DE
:105830004CEA080CCC44DFF80C86E044DDF814C0D8
:10584000DDF800908CEA090CDDF828908CEA090C50
:10585000DDF820908CEA09054FEA450C4CEAD57C2E
:10586000CDF820C0C44464444FEA817C4CEA9101E5
:105870004FEA441C4CEAD46900EA010C40EA0108F2
:1058800008EA02084CEA080CCC44DFF8B885E0448A
:10589000DDF818C0DDF804908CEA090CDDF82C90D6
:1058A0008CEA090CDDF824908CEA09054FEA450CD6
:1058B0004CEAD57CCDF824C0C44463444FEA807CD4
:1058C0004CEA90004FEA431C4CEAD36904EA000C0E
:1058D00044EA000808EA01084CEA080CCC44DFF866
:1058E0006485E044DDF81CC0DDF808908CEA090C02
:1058F000DDF830908CEA090CDDF828908CEA090577
:105900004FEA450C4CEAD57CCDF828C0C44462442B
:105910004FEA847C4CEA94044FEA421C4CEAD26978
:1059200003EA040C43EA040808EA00084CEA080CFD
:10593000CC44DFF81085E044DDF820C0DDF80C90A1
:105940008CEA090CDDF834908CEA090CDDF82C9017
:105950008CEA09054FEA450C4CEAD57CCDF82CC001
:10596000C44461444FEA837C4CEA93034FEA411CF0
:105970004CEAD16902EA030C42EA030808EA040887
:105980004CEA080CCC44DFF8BC84E044DDF824C0C9
:10599000DDF810908CEA090CDDF838908CEA090CDF
:1059A000DDF830908CEA09054FEA450C4CEAD57CCD
:1059B000CDF830C0C44460444FEA827C4CEA920285
:1059C0004FEA401C4CEAD06901EA020C41EA0208A5
:1059D00008EA03084CEA080CCC44DFF86884E04489
:1059E000DDF828C0DDF814908CEA090CDDF83C9055
:1059F0008CEA090CDDF834908CEA09054FEA450C75
:105A00004CEAD57CCDF834C0C44464444FEA817C70
:105A10004CEA91014FEA441C4CEAD46900EA010CBB
:105A200040EA010808EA02084CEA080CCC44DFF816
:105A30001484E044DDF82CC0DDF818908CEA090CE1
:105A4000DDF800908CEA090CDDF838908CEA090545
:105A50004FEA450C4CEAD57CCDF838C0C4446344C9
:105A60004FEA807C4CEA90004FEA431C4CEAD36931
:105A700004EA000C44EA000808EA01084CEA080CB1
:105A8000CC44DFF8C083E044DDF830C0DDF81C9082
:105A90008CEA090CDDF804908CEA090CDDF83C90E6
:105AA0008CEA09054FEA450C4CEAD57CCDF83CC0A0
:105AB000C44462444FEA847C4CEA94044FEA421C9A
:105AC0004CEAD26903EA040C43EA040808EA000835
:105AD0004CEA080CCC44DFF86C83E044DDF834C0B9
